{
  "contractName": "ERC20",
  "abi": [
    {
      "inputs": [
        {
          "internalType": "string",
          "name": "__name",
          "type": "string"
        },
        {
          "internalType": "string",
          "name": "__symbol",
          "type": "string"
        },
        {
          "internalType": "uint8",
          "name": "__decimals",
          "type": "uint8"
        },
        {
          "internalType": "uint256",
          "name": "__totalSupply",
          "type": "uint256"
        }
      ],
      "stateMutability": "nonpayable",
      "type": "constructor"
    },
    {
      "anonymous": false,
      "inputs": [
        {
          "indexed": true,
          "internalType": "address",
          "name": "_owner",
          "type": "address"
        },
        {
          "indexed": true,
          "internalType": "address",
          "name": "_spender",
          "type": "address"
        },
        {
          "indexed": false,
          "internalType": "uint256",
          "name": "_value",
          "type": "uint256"
        }
      ],
      "name": "Approval",
      "type": "event"
    },
    {
      "anonymous": false,
      "inputs": [
        {
          "indexed": true,
          "internalType": "address",
          "name": "_from",
          "type": "address"
        },
        {
          "indexed": true,
          "internalType": "address",
          "name": "_to",
          "type": "address"
        },
        {
          "indexed": false,
          "internalType": "uint256",
          "name": "_value",
          "type": "uint256"
        }
      ],
      "name": "Transfer",
      "type": "event"
    },
    {
      "inputs": [],
      "name": "contrato",
      "outputs": [
        {
          "internalType": "string",
          "name": "",
          "type": "string"
        }
      ],
      "stateMutability": "view",
      "type": "function",
      "constant": true
    },
    {
      "inputs": [],
      "name": "name",
      "outputs": [
        {
          "internalType": "string",
          "name": "",
          "type": "string"
        }
      ],
      "stateMutability": "view",
      "type": "function",
      "constant": true
    },
    {
      "inputs": [],
      "name": "symbol",
      "outputs": [
        {
          "internalType": "string",
          "name": "",
          "type": "string"
        }
      ],
      "stateMutability": "view",
      "type": "function",
      "constant": true
    },
    {
      "inputs": [],
      "name": "decimals",
      "outputs": [
        {
          "internalType": "uint8",
          "name": "",
          "type": "uint8"
        }
      ],
      "stateMutability": "view",
      "type": "function",
      "constant": true
    },
    {
      "inputs": [],
      "name": "totalSupply",
      "outputs": [
        {
          "internalType": "uint256",
          "name": "",
          "type": "uint256"
        }
      ],
      "stateMutability": "view",
      "type": "function",
      "constant": true
    },
    {
      "inputs": [
        {
          "internalType": "address",
          "name": "_owner",
          "type": "address"
        }
      ],
      "name": "balanceOf",
      "outputs": [
        {
          "internalType": "uint256",
          "name": "balance",
          "type": "uint256"
        }
      ],
      "stateMutability": "view",
      "type": "function",
      "constant": true
    },
    {
      "inputs": [
        {
          "internalType": "address",
          "name": "_owner",
          "type": "address"
        },
        {
          "internalType": "address",
          "name": "_spender",
          "type": "address"
        }
      ],
      "name": "allowance",
      "outputs": [
        {
          "internalType": "uint256",
          "name": "remaining",
          "type": "uint256"
        }
      ],
      "stateMutability": "view",
      "type": "function",
      "constant": true
    },
    {
      "inputs": [
        {
          "internalType": "address",
          "name": "_to",
          "type": "address"
        },
        {
          "internalType": "uint256",
          "name": "_value",
          "type": "uint256"
        }
      ],
      "name": "transfer",
      "outputs": [
        {
          "internalType": "bool",
          "name": "success",
          "type": "bool"
        }
      ],
      "stateMutability": "nonpayable",
      "type": "function"
    },
    {
      "inputs": [
        {
          "internalType": "address",
          "name": "_from",
          "type": "address"
        },
        {
          "internalType": "address",
          "name": "_to",
          "type": "address"
        },
        {
          "internalType": "uint256",
          "name": "_value",
          "type": "uint256"
        }
      ],
      "name": "transferFrom",
      "outputs": [
        {
          "internalType": "bool",
          "name": "success",
          "type": "bool"
        }
      ],
      "stateMutability": "nonpayable",
      "type": "function"
    },
    {
      "inputs": [
        {
          "internalType": "address",
          "name": "_spender",
          "type": "address"
        },
        {
          "internalType": "uint256",
          "name": "_value",
          "type": "uint256"
        }
      ],
      "name": "approve",
      "outputs": [
        {
          "internalType": "bool",
          "name": "success",
          "type": "bool"
        }
      ],
      "stateMutability": "nonpayable",
      "type": "function"
    }
  ],
  "bytecode": "0x60806040523480156200001157600080fd5b506040516200158b3803806200158b8339818101604052810190620000379190620003ef565b83600090805190602001906200004f92919062000129565b5082600190805190602001906200006892919062000129565b5081600260006101000a81548160ff021916908360ff16021790555081600a62000093919062000622565b81620000a0919062000673565b90508060038190555080600460003373ffffffffffffffffffffffffffffffffffffffff1673ffffffffffffffffffffffffffffffffffffffff168152602001908152602001600020819055506040518060800160405280605081526020016200153b60509139600690805190602001906200011e92919062000129565b505050505062000739565b828054620001379062000703565b90600052602060002090601f0160209004810192826200015b5760008555620001a7565b82601f106200017657805160ff1916838001178555620001a7565b82800160010185558215620001a7579182015b82811115620001a657825182559160200191906001019062000189565b5b509050620001b69190620001ba565b5090565b5b80821115620001d5576000816000905550600101620001bb565b5090565b6000604051905090565b600080fd5b600080fd5b600080fd5b600080fd5b6000601f19601f8301169050919050565b7f4e487b7100000000000000000000000000000000000000000000000000000000600052604160045260246000fd5b6200024282620001f7565b810181811067ffffffffffffffff8211171562000264576200026362000208565b5b80604052505050565b600062000279620001d9565b905062000287828262000237565b919050565b600067ffffffffffffffff821115620002aa57620002a962000208565b5b620002b582620001f7565b9050602081019050919050565b60005b83811015620002e2578082015181840152602081019050620002c5565b83811115620002f2576000848401525b50505050565b60006200030f62000309846200028c565b6200026d565b9050828152602081018484840111156200032e576200032d620001f2565b5b6200033b848285620002c2565b509392505050565b600082601f8301126200035b576200035a620001ed565b5b81516200036d848260208601620002f8565b91505092915050565b600060ff82169050919050565b6200038e8162000376565b81146200039a57600080fd5b50565b600081519050620003ae8162000383565b92915050565b6000819050919050565b620003c981620003b4565b8114620003d557600080fd5b50565b600081519050620003e981620003be565b92915050565b600080600080608085870312156200040c576200040b620001e3565b5b600085015167ffffffffffffffff8111156200042d576200042c620001e8565b5b6200043b8782880162000343565b945050602085015167ffffffffffffffff8111156200045f576200045e620001e8565b5b6200046d8782880162000343565b935050604062000480878288016200039d565b92505060606200049387828801620003d8565b91505092959194509250565b7f4e487b7100000000000000000000000000000000000000000000000000000000600052601160045260246000fd5b60008160011c9050919050565b6000808291508390505b60018511156200052d578086048111156200050557620005046200049f565b5b6001851615620005155780820291505b80810290506200052585620004ce565b9450620004e5565b94509492505050565b6000826200054857600190506200061b565b816200055857600090506200061b565b81600181146200057157600281146200057c57620005b2565b60019150506200061b565b60ff8411156200059157620005906200049f565b5b8360020a915084821115620005ab57620005aa6200049f565b5b506200061b565b5060208310610133831016604e8410600b8410161715620005ec5782820a905083811115620005e657620005e56200049f565b5b6200061b565b620005fb8484846001620004db565b925090508184048111156200061557620006146200049f565b5b81810290505b9392505050565b60006200062f82620003b4565b91506200063c8362000376565b92506200066b7fffffffffffffffffffffffffffffffffffffffffffffffffffffffffffffffff848462000536565b905092915050565b60006200068082620003b4565b91506200068d83620003b4565b9250817fffffffffffffffffffffffffffffffffffffffffffffffffffffffffffffffff0483118215151615620006c957620006c86200049f565b5b828202905092915050565b7f4e487b7100000000000000000000000000000000000000000000000000000000600052602260045260246000fd5b600060028204905060018216806200071c57607f821691505b60208210811415620007335762000732620006d4565b5b50919050565b610df280620007496000396000f3fe608060405234801561001057600080fd5b506004361061009e5760003560e01c806370a082311161006657806370a082311461015d57806395d89b411461018d578063a9059cbb146101ab578063dd62ed3e146101db578063e1a01e671461020b5761009e565b806306fdde03146100a3578063095ea7b3146100c157806318160ddd146100f157806323b872dd1461010f578063313ce5671461013f575b600080fd5b6100ab610229565b6040516100b891906109e4565b60405180910390f35b6100db60048036038101906100d69190610a9f565b6102bb565b6040516100e89190610afa565b60405180910390f35b6100f96103ad565b6040516101069190610b24565b60405180910390f35b61012960048036038101906101249190610b3f565b6103b7565b6040516101369190610afa565b60405180910390f35b610147610627565b6040516101549190610bae565b60405180910390f35b61017760048036038101906101729190610bc9565b61063e565b6040516101849190610b24565b60405180910390f35b610195610687565b6040516101a291906109e4565b60405180910390f35b6101c560048036038101906101c09190610a9f565b610719565b6040516101d29190610afa565b60405180910390f35b6101f560048036038101906101f09190610bf6565b610836565b6040516102029190610b24565b60405180910390f35b6102136108bd565b60405161022091906109e4565b60405180910390f35b60606000805461023890610c65565b80601f016020809104026020016040519081016040528092919081815260200182805461026490610c65565b80156102b15780601f10610286576101008083540402835291602001916102b1565b820191906000526020600020905b81548152906001019060200180831161029457829003601f168201915b5050505050905090565b600081600560003373ffffffffffffffffffffffffffffffffffffffff1673ffffffffffffffffffffffffffffffffffffffff16815260200190815260200160002060008573ffffffffffffffffffffffffffffffffffffffff1673ffffffffffffffffffffffffffffffffffffffff168152602001908152602001600020819055508273ffffffffffffffffffffffffffffffffffffffff163373ffffffffffffffffffffffffffffffffffffffff167f8c5be1e5ebec7d5bd14f71427d1e84f3dd0314c0f7b2291e5b200ac8c7c3b9258460405161039b9190610b24565b60405180910390a36001905092915050565b6000600354905090565b600081600560008673ffffffffffffffffffffffffffffffffffffffff1673ffffffffffffffffffffffffffffffffffffffff16815260200190815260200160002060003373ffffffffffffffffffffffffffffffffffffffff1673ffffffffffffffffffffffffffffffffffffffff168152602001908152602001600020541015610478576040517f08c379a000000000000000000000000000000000000000000000000000000000815260040161046f90610ce3565b60405180910390fd5b81600560008673ffffffffffffffffffffffffffffffffffffffff1673ffffffffffffffffffffffffffffffffffffffff16815260200190815260200160002060003373ffffffffffffffffffffffffffffffffffffffff1673ffffffffffffffffffffffffffffffffffffffff16815260200190815260200160002060008282546105049190610d32565b9250508190555081600460008673ffffffffffffffffffffffffffffffffffffffff1673ffffffffffffffffffffffffffffffffffffffff168152602001908152602001600020600082825461055a9190610d32565b9250508190555081600460008573ffffffffffffffffffffffffffffffffffffffff1673ffffffffffffffffffffffffffffffffffffffff16815260200190815260200160002060008282546105b09190610d66565b925050819055508273ffffffffffffffffffffffffffffffffffffffff168473ffffffffffffffffffffffffffffffffffffffff167fddf252ad1be2c89b69c2b068fc378daa952ba7f163c4a11628f55a4df523b3ef846040516106149190610b24565b60405180910390a3600190509392505050565b6000600260009054906101000a900460ff16905090565b6000600460008373ffffffffffffffffffffffffffffffffffffffff1673ffffffffffffffffffffffffffffffffffffffff168152602001908152602001600020549050919050565b60606001805461069690610c65565b80601f01602080910402602001604051908101604052809291908181526020018280546106c290610c65565b801561070f5780601f106106e45761010080835404028352916020019161070f565b820191906000526020600020905b8154815290600101906020018083116106f257829003601f168201915b5050505050905090565b600081600460003373ffffffffffffffffffffffffffffffffffffffff1673ffffffffffffffffffffffffffffffffffffffff168152602001908152602001600020600082825461076a9190610d32565b9250508190555081600460008573ffffffffffffffffffffffffffffffffffffffff1673ffffffffffffffffffffffffffffffffffffffff16815260200190815260200160002060008282546107c09190610d66565b925050819055508273ffffffffffffffffffffffffffffffffffffffff163373ffffffffffffffffffffffffffffffffffffffff167fddf252ad1be2c89b69c2b068fc378daa952ba7f163c4a11628f55a4df523b3ef846040516108249190610b24565b60405180910390a36001905092915050565b6000600560008473ffffffffffffffffffffffffffffffffffffffff1673ffffffffffffffffffffffffffffffffffffffff16815260200190815260200160002060008373ffffffffffffffffffffffffffffffffffffffff1673ffffffffffffffffffffffffffffffffffffffff16815260200190815260200160002054905092915050565b600680546108ca90610c65565b80601f01602080910402602001604051908101604052809291908181526020018280546108f690610c65565b80156109435780601f1061091857610100808354040283529160200191610943565b820191906000526020600020905b81548152906001019060200180831161092657829003601f168201915b505050505081565b600081519050919050565b600082825260208201905092915050565b60005b8381101561098557808201518184015260208101905061096a565b83811115610994576000848401525b50505050565b6000601f19601f8301169050919050565b60006109b68261094b565b6109c08185610956565b93506109d0818560208601610967565b6109d98161099a565b840191505092915050565b600060208201905081810360008301526109fe81846109ab565b905092915050565b600080fd5b600073ffffffffffffffffffffffffffffffffffffffff82169050919050565b6000610a3682610a0b565b9050919050565b610a4681610a2b565b8114610a5157600080fd5b50565b600081359050610a6381610a3d565b92915050565b6000819050919050565b610a7c81610a69565b8114610a8757600080fd5b50565b600081359050610a9981610a73565b92915050565b60008060408385031215610ab657610ab5610a06565b5b6000610ac485828601610a54565b9250506020610ad585828601610a8a565b9150509250929050565b60008115159050919050565b610af481610adf565b82525050565b6000602082019050610b0f6000830184610aeb565b92915050565b610b1e81610a69565b82525050565b6000602082019050610b396000830184610b15565b92915050565b600080600060608486031215610b5857610b57610a06565b5b6000610b6686828701610a54565b9350506020610b7786828701610a54565b9250506040610b8886828701610a8a565b9150509250925092565b600060ff82169050919050565b610ba881610b92565b82525050565b6000602082019050610bc36000830184610b9f565b92915050565b600060208284031215610bdf57610bde610a06565b5b6000610bed84828501610a54565b91505092915050565b60008060408385031215610c0d57610c0c610a06565b5b6000610c1b85828601610a54565b9250506020610c2c85828601610a54565b9150509250929050565b7f4e487b7100000000000000000000000000000000000000000000000000000000600052602260045260246000fd5b60006002820490506001821680610c7d57607f821691505b60208210811415610c9157610c90610c36565b5b50919050565b7f7573746564206e6f207075656465206761737461722065736f00000000000000600082015250565b6000610ccd601983610956565b9150610cd882610c97565b602082019050919050565b60006020820190508181036000830152610cfc81610cc0565b9050919050565b7f4e487b7100000000000000000000000000000000000000000000000000000000600052601160045260246000fd5b6000610d3d82610a69565b9150610d4883610a69565b925082821015610d5b57610d5a610d03565b5b828203905092915050565b6000610d7182610a69565b9150610d7c83610a69565b9250827fffffffffffffffffffffffffffffffffffffffffffffffffffffffffffffffff03821115610db157610db0610d03565b5b82820190509291505056fea2646970667358221220b3a68c9614e25564b58bf4b6b528362150c2352500f1ae4103f2444194d1840664736f6c634300080900336573746520746f6b656e20726570726573656e746120656c20706f7263656e74616a652064652070617274696369706163696f6e206465206c6120696e76657273696f6e20646520756e612063617361",
  "immutableReferences": {},
  "source": "// SPDX-License-Identifier: MIT\r\npragma solidity >0.7.0 <=0.9.0;\r\n\r\n\r\ninterface IERC20 {\r\n    function name() external  view returns (string memory);\r\n    function symbol() external  view returns (string memory);\r\n    function decimals() external view returns (uint8);\r\n    function totalSupply() external view returns (uint256);\r\n    function balanceOf(address _owner) external view returns (uint256 balance);\r\n    function transfer(address _to, uint256 _value) external returns (bool success);\r\n    function transferFrom(address _from, address _to, uint256 _value) external returns (bool success);\r\n    function approve(address _spender, uint256 _value) external returns (bool success);\r\n    function allowance(address _owner, address _spender) external view returns (uint256 remaining);\r\n}\r\n\r\n\r\ncontract ERC20 {\r\n\r\n    string private _name;\r\n    string private _symbol;\r\n    uint8 private _decimals;\r\n    uint256 private _totalSupply;\r\n    mapping (address => uint256) _balanceOf;// _balanceOf[address] => uint256\r\n    mapping (address => mapping (address => uint256)) _allowance; // _allownce[address][address] => uint256\r\n    string public contrato;\r\n\r\n    constructor(string memory __name, string memory __symbol, uint8 __decimals, uint256 __totalSupply) {\r\n        _name=__name;\r\n        _symbol=__symbol;\r\n        _decimals=__decimals;\r\n        __totalSupply = __totalSupply * (10**__decimals);\r\n        _totalSupply= __totalSupply;\r\n        _balanceOf[msg.sender] = __totalSupply;\r\n        contrato=\"este token representa el porcentaje de participacion de la inversion de una casa\";\r\n    }\r\n\r\n    //buy\r\n    //receive()\r\n\r\n    //approve\r\n    //sell\r\n\r\n\r\n    function name() external  view returns (string memory) {\r\n        return(_name);\r\n    }\r\n    function symbol() external  view returns (string memory){\r\n        return(_symbol);\r\n    }\r\n    function decimals() external view returns (uint8){\r\n        return(_decimals);\r\n    }\r\n    function totalSupply() external view returns (uint256){\r\n        return(_totalSupply);\r\n    }\r\n    function balanceOf(address _owner) external view returns (uint256 balance) {\r\n        return(_balanceOf[_owner]);\r\n    }\r\n    function allowance(address _owner, address _spender) external view returns (uint256 remaining){\r\n        return(_allowance[_owner][_spender]);\r\n    }\r\n\r\n    function transfer(address _to, uint256 _value) external returns (bool success) {\r\n        _balanceOf[msg.sender] -= _value;\r\n        _balanceOf[_to] += _value;\r\n        emit Transfer(msg.sender, _to, _value);\r\n        return(true);\r\n    }\r\n\r\n    function transferFrom(address _from, address _to, uint256 _value) external returns (bool success) {\r\n        require(_allowance[_from][msg.sender] >= _value, \"usted no puede gastar eso\"); \r\n        _allowance[_from][msg.sender] -= _value;\r\n        _balanceOf[_from] -= _value;\r\n        _balanceOf[_to] += _value;\r\n        emit Transfer(_from, _to, _value);\r\n        return(true);\r\n    }\r\n\r\n    function approve(address _spender, uint256 _value) external returns (bool success) {\r\n        _allowance[msg.sender][_spender] = _value;\r\n        emit Approval(msg.sender, _spender, _value);\r\n        return (true);\r\n    }\r\n\r\n\r\n    event Transfer(address indexed _from, address indexed _to, uint256 _value);\r\n    event Approval(address indexed _owner, address indexed _spender, uint256 _value);\r\n\r\n}",
  "sourcePath": "/home/cryptocris/edIT/german/contracts/Token.sol",
  "compiler": {
    "name": "solc",
    "version": "0.8.9+commit.e5eed63a.Emscripten.clang"
  },
  "schemaVersion": "3.4.11",
  "updatedAt": "2023-07-27T22:17:24.657Z",
  "networkType": "ethereum",
  "devdoc": {
    "kind": "dev",
    "methods": {},
    "version": 1
  },
  "userdoc": {
    "kind": "user",
    "methods": {},
    "version": 1
  }
}